{
  "contractName": "CryptoDuckWalk",
  "abi": [
    {
      "inputs": [
        {
          "internalType": "string",
          "name": "_name",
          "type": "string"
        },
        {
          "internalType": "string",
          "name": "_symbol",
          "type": "string"
        },
        {
          "internalType": "string",
          "name": "_initBaseURI",
          "type": "string"
        }
      ],
      "stateMutability": "nonpayable",
      "type": "constructor"
    },
    {
      "anonymous": false,
      "inputs": [
        {
          "indexed": true,
          "internalType": "address",
          "name": "owner",
          "type": "address"
        },
        {
          "indexed": true,
          "internalType": "address",
          "name": "approved",
          "type": "address"
        },
        {
          "indexed": true,
          "internalType": "uint256",
          "name": "tokenId",
          "type": "uint256"
        }
      ],
      "name": "Approval",
      "type": "event"
    },
    {
      "anonymous": false,
      "inputs": [
        {
          "indexed": true,
          "internalType": "address",
          "name": "owner",
          "type": "address"
        },
        {
          "indexed": true,
          "internalType": "address",
          "name": "operator",
          "type": "address"
        },
        {
          "indexed": false,
          "internalType": "bool",
          "name": "approved",
          "type": "bool"
        }
      ],
      "name": "ApprovalForAll",
      "type": "event"
    },
    {
      "anonymous": false,
      "inputs": [
        {
          "indexed": true,
          "internalType": "address",
          "name": "previousOwner",
          "type": "address"
        },
        {
          "indexed": true,
          "internalType": "address",
          "name": "newOwner",
          "type": "address"
        }
      ],
      "name": "OwnershipTransferred",
      "type": "event"
    },
    {
      "anonymous": false,
      "inputs": [
        {
          "indexed": true,
          "internalType": "address",
          "name": "from",
          "type": "address"
        },
        {
          "indexed": true,
          "internalType": "address",
          "name": "to",
          "type": "address"
        },
        {
          "indexed": true,
          "internalType": "uint256",
          "name": "tokenId",
          "type": "uint256"
        }
      ],
      "name": "Transfer",
      "type": "event"
    },
    {
      "inputs": [
        {
          "internalType": "address",
          "name": "to",
          "type": "address"
        },
        {
          "internalType": "uint256",
          "name": "tokenId",
          "type": "uint256"
        }
      ],
      "name": "approve",
      "outputs": [],
      "stateMutability": "nonpayable",
      "type": "function"
    },
    {
      "inputs": [
        {
          "internalType": "address",
          "name": "owner",
          "type": "address"
        }
      ],
      "name": "balanceOf",
      "outputs": [
        {
          "internalType": "uint256",
          "name": "",
          "type": "uint256"
        }
      ],
      "stateMutability": "view",
      "type": "function",
      "constant": true
    },
    {
      "inputs": [],
      "name": "baseExtension",
      "outputs": [
        {
          "internalType": "string",
          "name": "",
          "type": "string"
        }
      ],
      "stateMutability": "view",
      "type": "function",
      "constant": true
    },
    {
      "inputs": [],
      "name": "baseURI",
      "outputs": [
        {
          "internalType": "string",
          "name": "",
          "type": "string"
        }
      ],
      "stateMutability": "view",
      "type": "function",
      "constant": true
    },
    {
      "inputs": [],
      "name": "cost",
      "outputs": [
        {
          "internalType": "uint256",
          "name": "",
          "type": "uint256"
        }
      ],
      "stateMutability": "view",
      "type": "function",
      "constant": true
    },
    {
      "inputs": [
        {
          "internalType": "uint256",
          "name": "tokenId",
          "type": "uint256"
        }
      ],
      "name": "getApproved",
      "outputs": [
        {
          "internalType": "address",
          "name": "",
          "type": "address"
        }
      ],
      "stateMutability": "view",
      "type": "function",
      "constant": true
    },
    {
      "inputs": [
        {
          "internalType": "address",
          "name": "owner",
          "type": "address"
        },
        {
          "internalType": "address",
          "name": "operator",
          "type": "address"
        }
      ],
      "name": "isApprovedForAll",
      "outputs": [
        {
          "internalType": "bool",
          "name": "",
          "type": "bool"
        }
      ],
      "stateMutability": "view",
      "type": "function",
      "constant": true
    },
    {
      "inputs": [],
      "name": "maxMintAmount",
      "outputs": [
        {
          "internalType": "uint256",
          "name": "",
          "type": "uint256"
        }
      ],
      "stateMutability": "view",
      "type": "function",
      "constant": true
    },
    {
      "inputs": [],
      "name": "maxSupply",
      "outputs": [
        {
          "internalType": "uint256",
          "name": "",
          "type": "uint256"
        }
      ],
      "stateMutability": "view",
      "type": "function",
      "constant": true
    },
    {
      "inputs": [],
      "name": "name",
      "outputs": [
        {
          "internalType": "string",
          "name": "",
          "type": "string"
        }
      ],
      "stateMutability": "view",
      "type": "function",
      "constant": true
    },
    {
      "inputs": [],
      "name": "owner",
      "outputs": [
        {
          "internalType": "address",
          "name": "",
          "type": "address"
        }
      ],
      "stateMutability": "view",
      "type": "function",
      "constant": true
    },
    {
      "inputs": [
        {
          "internalType": "uint256",
          "name": "tokenId",
          "type": "uint256"
        }
      ],
      "name": "ownerOf",
      "outputs": [
        {
          "internalType": "address",
          "name": "",
          "type": "address"
        }
      ],
      "stateMutability": "view",
      "type": "function",
      "constant": true
    },
    {
      "inputs": [],
      "name": "paused",
      "outputs": [
        {
          "internalType": "bool",
          "name": "",
          "type": "bool"
        }
      ],
      "stateMutability": "view",
      "type": "function",
      "constant": true
    },
    {
      "inputs": [],
      "name": "renounceOwnership",
      "outputs": [],
      "stateMutability": "nonpayable",
      "type": "function"
    },
    {
      "inputs": [
        {
          "internalType": "address",
          "name": "from",
          "type": "address"
        },
        {
          "internalType": "address",
          "name": "to",
          "type": "address"
        },
        {
          "internalType": "uint256",
          "name": "tokenId",
          "type": "uint256"
        }
      ],
      "name": "safeTransferFrom",
      "outputs": [],
      "stateMutability": "nonpayable",
      "type": "function"
    },
    {
      "inputs": [
        {
          "internalType": "address",
          "name": "from",
          "type": "address"
        },
        {
          "internalType": "address",
          "name": "to",
          "type": "address"
        },
        {
          "internalType": "uint256",
          "name": "tokenId",
          "type": "uint256"
        },
        {
          "internalType": "bytes",
          "name": "_data",
          "type": "bytes"
        }
      ],
      "name": "safeTransferFrom",
      "outputs": [],
      "stateMutability": "nonpayable",
      "type": "function"
    },
    {
      "inputs": [
        {
          "internalType": "address",
          "name": "operator",
          "type": "address"
        },
        {
          "internalType": "bool",
          "name": "approved",
          "type": "bool"
        }
      ],
      "name": "setApprovalForAll",
      "outputs": [],
      "stateMutability": "nonpayable",
      "type": "function"
    },
    {
      "inputs": [
        {
          "internalType": "bytes4",
          "name": "interfaceId",
          "type": "bytes4"
        }
      ],
      "name": "supportsInterface",
      "outputs": [
        {
          "internalType": "bool",
          "name": "",
          "type": "bool"
        }
      ],
      "stateMutability": "view",
      "type": "function",
      "constant": true
    },
    {
      "inputs": [],
      "name": "symbol",
      "outputs": [
        {
          "internalType": "string",
          "name": "",
          "type": "string"
        }
      ],
      "stateMutability": "view",
      "type": "function",
      "constant": true
    },
    {
      "inputs": [
        {
          "internalType": "uint256",
          "name": "index",
          "type": "uint256"
        }
      ],
      "name": "tokenByIndex",
      "outputs": [
        {
          "internalType": "uint256",
          "name": "",
          "type": "uint256"
        }
      ],
      "stateMutability": "view",
      "type": "function",
      "constant": true
    },
    {
      "inputs": [
        {
          "internalType": "address",
          "name": "owner",
          "type": "address"
        },
        {
          "internalType": "uint256",
          "name": "index",
          "type": "uint256"
        }
      ],
      "name": "tokenOfOwnerByIndex",
      "outputs": [
        {
          "internalType": "uint256",
          "name": "",
          "type": "uint256"
        }
      ],
      "stateMutability": "view",
      "type": "function",
      "constant": true
    },
    {
      "inputs": [],
      "name": "totalSupply",
      "outputs": [
        {
          "internalType": "uint256",
          "name": "",
          "type": "uint256"
        }
      ],
      "stateMutability": "view",
      "type": "function",
      "constant": true
    },
    {
      "inputs": [
        {
          "internalType": "address",
          "name": "from",
          "type": "address"
        },
        {
          "internalType": "address",
          "name": "to",
          "type": "address"
        },
        {
          "internalType": "uint256",
          "name": "tokenId",
          "type": "uint256"
        }
      ],
      "name": "transferFrom",
      "outputs": [],
      "stateMutability": "nonpayable",
      "type": "function"
    },
    {
      "inputs": [
        {
          "internalType": "address",
          "name": "newOwner",
          "type": "address"
        }
      ],
      "name": "transferOwnership",
      "outputs": [],
      "stateMutability": "nonpayable",
      "type": "function"
    },
    {
      "inputs": [
        {
          "internalType": "address",
          "name": "",
          "type": "address"
        }
      ],
      "name": "whitelisted",
      "outputs": [
        {
          "internalType": "bool",
          "name": "",
          "type": "bool"
        }
      ],
      "stateMutability": "view",
      "type": "function",
      "constant": true
    },
    {
      "inputs": [
        {
          "internalType": "address",
          "name": "_to",
          "type": "address"
        },
        {
          "internalType": "uint256",
          "name": "_mintAmount",
          "type": "uint256"
        }
      ],
      "name": "mint",
      "outputs": [],
      "stateMutability": "payable",
      "type": "function",
      "payable": true
    },
    {
      "inputs": [
        {
          "internalType": "address",
          "name": "_owner",
          "type": "address"
        }
      ],
      "name": "walletOfOwner",
      "outputs": [
        {
          "internalType": "uint256[]",
          "name": "",
          "type": "uint256[]"
        }
      ],
      "stateMutability": "view",
      "type": "function",
      "constant": true
    },
    {
      "inputs": [
        {
          "internalType": "uint256",
          "name": "tokenId",
          "type": "uint256"
        }
      ],
      "name": "tokenURI",
      "outputs": [
        {
          "internalType": "string",
          "name": "",
          "type": "string"
        }
      ],
      "stateMutability": "view",
      "type": "function",
      "constant": true
    },
    {
      "inputs": [
        {
          "internalType": "uint256",
          "name": "_newCost",
          "type": "uint256"
        }
      ],
      "name": "setCost",
      "outputs": [],
      "stateMutability": "nonpayable",
      "type": "function"
    },
    {
      "inputs": [
        {
          "internalType": "uint256",
          "name": "_newmaxMintAmount",
          "type": "uint256"
        }
      ],
      "name": "setmaxMintAmount",
      "outputs": [],
      "stateMutability": "nonpayable",
      "type": "function"
    },
    {
      "inputs": [
        {
          "internalType": "string",
          "name": "_newBaseURI",
          "type": "string"
        }
      ],
      "name": "setBaseURI",
      "outputs": [],
      "stateMutability": "nonpayable",
      "type": "function"
    },
    {
      "inputs": [
        {
          "internalType": "string",
          "name": "_newBaseExtension",
          "type": "string"
        }
      ],
      "name": "setBaseExtension",
      "outputs": [],
      "stateMutability": "nonpayable",
      "type": "function"
    },
    {
      "inputs": [
        {
          "internalType": "bool",
          "name": "_state",
          "type": "bool"
        }
      ],
      "name": "pause",
      "outputs": [],
      "stateMutability": "nonpayable",
      "type": "function"
    },
    {
      "inputs": [
        {
          "internalType": "address",
          "name": "_user",
          "type": "address"
        }
      ],
      "name": "whitelistUser",
      "outputs": [],
      "stateMutability": "nonpayable",
      "type": "function"
    },
    {
      "inputs": [
        {
          "internalType": "address",
          "name": "_user",
          "type": "address"
        }
      ],
      "name": "removeWhitelistUser",
      "outputs": [],
      "stateMutability": "nonpayable",
      "type": "function"
    },
    {
      "inputs": [],
      "name": "withdraw",
      "outputs": [],
      "stateMutability": "payable",
      "type": "function",
      "payable": true
    }
  ],
  "bytecode": "0x60c06040526005608081905264173539b7b760d91b60a09081526200002891600c919062000a29565b506703782dace9d90000600d556103e8600e556005600f556010805460ff191690553480156200005757600080fd5b5060405162003268380380620032688339810160408190526200007a9162000b8f565b8251839083906200009390600090602085019062000a29565b508051620000a990600190602084019062000a29565b505050620000c6620000c0620000e760201b60201c565b620000eb565b620000d1816200013d565b620000de336002620001b6565b50505062000d7f565b3390565b600a80546001600160a01b038381166001600160a01b0319831681179093556040519116919082907f8be0079c531659141344cd1fd0a4f28419497f9722a3daafe3b4186f6b6457e090600090a35050565b600a546001600160a01b031633146200019d5760405162461bcd60e51b815260206004820181905260248201527f4f776e61626c653a2063616c6c6572206973206e6f7420746865206f776e657260448201526064015b60405180910390fd5b8051620001b290600b90602084019062000a29565b5050565b6000620001c260085490565b60105490915060ff1615620002065760405162461bcd60e51b815260206004820152600960248201526867617373636173653160b81b604482015260640162000194565b60008211620002445760405162461bcd60e51b815260206004820152600960248201526833b0b9b9b1b0b9b29960b91b604482015260640162000194565b600f54821115620002845760405162461bcd60e51b815260206004820152600960248201526867617373636173653360b81b604482015260640162000194565b600e5462000293838362000c72565b1115620002cf5760405162461bcd60e51b815260206004820152600960248201526819d85cdcd8d85cd94d60ba1b604482015260640162000194565b600a546001600160a01b031633146200034c573360009081526011602052604090205460ff1615156001146200034c5781600d546200030f919062000c8d565b3410156200034c5760405162461bcd60e51b815260206004820152600960248201526867617373636173653560b81b604482015260640162000194565b60015b82811162000383576200036e8462000368838562000c72565b62000389565b806200037a8162000d35565b9150506200034f565b50505050565b620001b2828260405180602001604052806000815250620003ab60201b60201c565b620003b7838362000423565b620003c6600084848462000579565b6200041e5760405162461bcd60e51b815260206004820152603260248201526000805160206200324883398151915260448201527131b2b4bb32b91034b6b83632b6b2b73a32b960711b606482015260840162000194565b505050565b6001600160a01b0382166200047b5760405162461bcd60e51b815260206004820181905260248201527f4552433732313a206d696e7420746f20746865207a65726f2061646472657373604482015260640162000194565b6000818152600260205260409020546001600160a01b031615620004e25760405162461bcd60e51b815260206004820152601c60248201527f4552433732313a20746f6b656e20616c7265616479206d696e74656400000000604482015260640162000194565b620004f060008383620006e2565b6001600160a01b03821660009081526003602052604081208054600192906200051b90849062000c72565b909155505060008181526002602052604080822080546001600160a01b0319166001600160a01b03861690811790915590518392907fddf252ad1be2c89b69c2b068fc378daa952ba7f163c4a11628f55a4df523b3ef908290a45050565b60006200059a846001600160a01b0316620007be60201b6200136e1760201c565b15620006d657604051630a85bd0160e11b81526001600160a01b0385169063150b7a0290620005d490339089908890889060040162000c1c565b602060405180830381600087803b158015620005ef57600080fd5b505af192505050801562000622575060408051601f3d908101601f191682019092526200061f9181019062000b5e565b60015b620006bb573d80801562000653576040519150601f19603f3d011682016040523d82523d6000602084013e62000658565b606091505b508051620006b35760405162461bcd60e51b815260206004820152603260248201526000805160206200324883398151915260448201527131b2b4bb32b91034b6b83632b6b2b73a32b960711b606482015260840162000194565b805181602001fd5b6001600160e01b031916630a85bd0160e11b149050620006da565b5060015b949350505050565b620006fa8383836200041e60201b620009401760201c565b6001600160a01b03831662000758576200075281600880546000838152600960205260408120829055600182018355919091527ff3f7a9fe364faab93b216da50a3214154f22a0a2b415b23a84c8169e8b636ee30155565b6200077e565b816001600160a01b0316836001600160a01b0316146200077e576200077e8382620007c4565b6001600160a01b03821662000798576200041e8162000871565b826001600160a01b0316826001600160a01b0316146200041e576200041e82826200094f565b3b151590565b60006001620007de84620009a060201b62000fbb1760201c565b620007ea919062000caf565b6000838152600760205260409020549091508082146200083e576001600160a01b03841660009081526006602090815260408083208584528252808320548484528184208190558352600790915290208190555b5060009182526007602090815260408084208490556001600160a01b039094168352600681528383209183525290812055565b600854600090620008859060019062000caf565b60008381526009602052604081205460088054939450909284908110620008bc57634e487b7160e01b600052603260045260246000fd5b906000526020600020015490508060088381548110620008ec57634e487b7160e01b600052603260045260246000fd5b60009182526020808320909101929092558281526009909152604080822084905585825281205560088054806200093357634e487b7160e01b600052603160045260246000fd5b6001900381819060005260206000200160009055905550505050565b60006200096783620009a060201b62000fbb1760201c565b6001600160a01b039093166000908152600660209081526040808320868452825280832085905593825260079052919091209190915550565b60006001600160a01b03821662000a0d5760405162461bcd60e51b815260206004820152602a60248201527f4552433732313a2062616c616e636520717565727920666f7220746865207a65604482015269726f206164647265737360b01b606482015260840162000194565b506001600160a01b031660009081526003602052604090205490565b82805462000a379062000cf8565b90600052602060002090601f01602090048101928262000a5b576000855562000aa6565b82601f1062000a7657805160ff191683800117855562000aa6565b8280016001018555821562000aa6579182015b8281111562000aa657825182559160200191906001019062000a89565b5062000ab492915062000ab8565b5090565b5b8082111562000ab4576000815560010162000ab9565b600082601f83011262000ae0578081fd5b81516001600160401b038082111562000afd5762000afd62000d69565b604051601f8301601f19908116603f0116810190828211818310171562000b285762000b2862000d69565b8160405283815286602085880101111562000b41578485fd5b62000b5484602083016020890162000cc9565b9695505050505050565b60006020828403121562000b70578081fd5b81516001600160e01b03198116811462000b88578182fd5b9392505050565b60008060006060848603121562000ba4578182fd5b83516001600160401b038082111562000bbb578384fd5b62000bc98783880162000acf565b9450602086015191508082111562000bdf578384fd5b62000bed8783880162000acf565b9350604086015191508082111562000c03578283fd5b5062000c128682870162000acf565b9150509250925092565b600060018060a01b03808716835280861660208401525083604083015260806060830152825180608084015262000c5b8160a085016020870162000cc9565b601f01601f19169190910160a00195945050505050565b6000821982111562000c885762000c8862000d53565b500190565b600081600019048311821515161562000caa5762000caa62000d53565b500290565b60008282101562000cc45762000cc462000d53565b500390565b60005b8381101562000ce657818101518382015260200162000ccc565b83811115620003835750506000910152565b600181811c9082168062000d0d57607f821691505b6020821081141562000d2f57634e487b7160e01b600052602260045260246000fd5b50919050565b600060001982141562000d4c5762000d4c62000d53565b5060010190565b634e487b7160e01b600052601160045260246000fd5b634e487b7160e01b600052604160045260246000fd5b6124b98062000d8f6000396000f3fe60806040526004361061020f5760003560e01c806355f804b311610118578063a22cb465116100a0578063d5abeb011161006f578063d5abeb01146105c8578063d936547e146105de578063da3ef23f1461060e578063e985e9c51461062e578063f2fde38b1461067757600080fd5b8063a22cb46514610553578063b88d4fde14610573578063c668286214610593578063c87b56dd146105a857600080fd5b806370a08231116100e757806370a08231146104cb578063715018a6146104eb5780637f00c7a6146105005780638da5cb5b1461052057806395d89b411461053e57600080fd5b806355f804b31461045c5780635c975abb1461047c5780636352211e146104965780636c0360eb146104b657600080fd5b80632f745c591161019b57806342842e0e1161016a57806342842e0e146103af578063438b6300146103cf57806344a0d68a146103fc5780634a4c560d1461041c5780634f6ccce71461043c57600080fd5b80632f745c591461035457806330cc7ae0146103745780633ccfd60b1461039457806340c10f191461039c57600080fd5b8063095ea7b3116101e2578063095ea7b3146102c557806313faede6146102e557806318160ddd14610309578063239c70ae1461031e57806323b872dd1461033457600080fd5b806301ffc9a71461021457806302329a291461024957806306fdde031461026b578063081812fc1461028d575b600080fd5b34801561022057600080fd5b5061023461022f366004612043565b610697565b60405190151581526020015b60405180910390f35b34801561025557600080fd5b50610269610264366004612029565b6106c2565b005b34801561027757600080fd5b50610280610708565b6040516102409190612248565b34801561029957600080fd5b506102ad6102a83660046120c1565b61079a565b6040516001600160a01b039091168152602001610240565b3480156102d157600080fd5b506102696102e0366004612000565b61082f565b3480156102f157600080fd5b506102fb600d5481565b604051908152602001610240565b34801561031557600080fd5b506008546102fb565b34801561032a57600080fd5b506102fb600f5481565b34801561034057600080fd5b5061026961034f366004611f23565b610945565b34801561036057600080fd5b506102fb61036f366004612000565b610976565b34801561038057600080fd5b5061026961038f366004611ed7565b610a0c565b610269610a57565b6102696103aa366004612000565b610ac4565b3480156103bb57600080fd5b506102696103ca366004611f23565b610c7e565b3480156103db57600080fd5b506103ef6103ea366004611ed7565b610c99565b6040516102409190612204565b34801561040857600080fd5b506102696104173660046120c1565b610d57565b34801561042857600080fd5b50610269610437366004611ed7565b610d86565b34801561044857600080fd5b506102fb6104573660046120c1565b610dd4565b34801561046857600080fd5b5061026961047736600461207b565b610e75565b34801561048857600080fd5b506010546102349060ff1681565b3480156104a257600080fd5b506102ad6104b13660046120c1565b610eb6565b3480156104c257600080fd5b50610280610f2d565b3480156104d757600080fd5b506102fb6104e6366004611ed7565b610fbb565b3480156104f757600080fd5b50610269611042565b34801561050c57600080fd5b5061026961051b3660046120c1565b611076565b34801561052c57600080fd5b50600a546001600160a01b03166102ad565b34801561054a57600080fd5b506102806110a5565b34801561055f57600080fd5b5061026961056e366004611fd7565b6110b4565b34801561057f57600080fd5b5061026961058e366004611f5e565b611179565b34801561059f57600080fd5b506102806111ab565b3480156105b457600080fd5b506102806105c33660046120c1565b6111b8565b3480156105d457600080fd5b506102fb600e5481565b3480156105ea57600080fd5b506102346105f9366004611ed7565b60116020526000908152604090205460ff1681565b34801561061a57600080fd5b5061026961062936600461207b565b611296565b34801561063a57600080fd5b50610234610649366004611ef1565b6001600160a01b03918216600090815260056020908152604080832093909416825291909152205460ff1690565b34801561068357600080fd5b50610269610692366004611ed7565b6112d3565b60006001600160e01b0319821663780e9d6360e01b14806106bc57506106bc82611374565b92915050565b600a546001600160a01b031633146106f55760405162461bcd60e51b81526004016106ec906122ad565b60405180910390fd5b6010805460ff1916911515919091179055565b606060008054610717906123c1565b80601f0160208091040260200160405190810160405280929190818152602001828054610743906123c1565b80156107905780601f1061076557610100808354040283529160200191610790565b820191906000526020600020905b81548152906001019060200180831161077357829003601f168201915b5050505050905090565b6000818152600260205260408120546001600160a01b03166108135760405162461bcd60e51b815260206004820152602c60248201527f4552433732313a20617070726f76656420717565727920666f72206e6f6e657860448201526b34b9ba32b73a103a37b5b2b760a11b60648201526084016106ec565b506000908152600460205260409020546001600160a01b031690565b600061083a82610eb6565b9050806001600160a01b0316836001600160a01b031614156108a85760405162461bcd60e51b815260206004820152602160248201527f4552433732313a20617070726f76616c20746f2063757272656e74206f776e656044820152603960f91b60648201526084016106ec565b336001600160a01b03821614806108c457506108c48133610649565b6109365760405162461bcd60e51b815260206004820152603860248201527f4552433732313a20617070726f76652063616c6c6572206973206e6f74206f7760448201527f6e6572206e6f7220617070726f76656420666f7220616c6c000000000000000060648201526084016106ec565b61094083836113c4565b505050565b61094f3382611432565b61096b5760405162461bcd60e51b81526004016106ec906122e2565b610940838383611529565b600061098183610fbb565b82106109e35760405162461bcd60e51b815260206004820152602b60248201527f455243373231456e756d657261626c653a206f776e657220696e646578206f7560448201526a74206f6620626f756e647360a81b60648201526084016106ec565b506001600160a01b03919091166000908152600660209081526040808320938352929052205490565b600a546001600160a01b03163314610a365760405162461bcd60e51b81526004016106ec906122ad565b6001600160a01b03166000908152601160205260409020805460ff19169055565b600a546001600160a01b03163314610a815760405162461bcd60e51b81526004016106ec906122ad565b60405133904780156108fc02916000818181858888f19350505050610ac25760405162461bcd60e51b815260206004820152600060248201526044016106ec565b565b6000610acf60085490565b60105490915060ff1615610b115760405162461bcd60e51b815260206004820152600960248201526867617373636173653160b81b60448201526064016106ec565b60008211610b4d5760405162461bcd60e51b815260206004820152600960248201526833b0b9b9b1b0b9b29960b91b60448201526064016106ec565b600f54821115610b8b5760405162461bcd60e51b815260206004820152600960248201526867617373636173653360b81b60448201526064016106ec565b600e54610b988383612333565b1115610bd25760405162461bcd60e51b815260206004820152600960248201526819d85cdcd8d85cd94d60ba1b60448201526064016106ec565b600a546001600160a01b03163314610c49573360009081526011602052604090205460ff161515600114610c495781600d54610c0e919061235f565b341015610c495760405162461bcd60e51b815260206004820152600960248201526867617373636173653560b81b60448201526064016106ec565b60015b828111610c7857610c6684610c618385612333565b6116d4565b80610c70816123fc565b915050610c4c565b50505050565b61094083838360405180602001604052806000815250611179565b60606000610ca683610fbb565b905060008167ffffffffffffffff811115610cd157634e487b7160e01b600052604160045260246000fd5b604051908082528060200260200182016040528015610cfa578160200160208202803683370190505b50905060005b82811015610d4f57610d128582610976565b828281518110610d3257634e487b7160e01b600052603260045260246000fd5b602090810291909101015280610d47816123fc565b915050610d00565b509392505050565b600a546001600160a01b03163314610d815760405162461bcd60e51b81526004016106ec906122ad565b600d55565b600a546001600160a01b03163314610db05760405162461bcd60e51b81526004016106ec906122ad565b6001600160a01b03166000908152601160205260409020805460ff19166001179055565b6000610ddf60085490565b8210610e425760405162461bcd60e51b815260206004820152602c60248201527f455243373231456e756d657261626c653a20676c6f62616c20696e646578206f60448201526b7574206f6620626f756e647360a01b60648201526084016106ec565b60088281548110610e6357634e487b7160e01b600052603260045260246000fd5b90600052602060002001549050919050565b600a546001600160a01b03163314610e9f5760405162461bcd60e51b81526004016106ec906122ad565b8051610eb290600b906020840190611d9c565b5050565b6000818152600260205260408120546001600160a01b0316806106bc5760405162461bcd60e51b815260206004820152602960248201527f4552433732313a206f776e657220717565727920666f72206e6f6e657869737460448201526832b73a103a37b5b2b760b91b60648201526084016106ec565b600b8054610f3a906123c1565b80601f0160208091040260200160405190810160405280929190818152602001828054610f66906123c1565b8015610fb35780601f10610f8857610100808354040283529160200191610fb3565b820191906000526020600020905b815481529060010190602001808311610f9657829003601f168201915b505050505081565b60006001600160a01b0382166110265760405162461bcd60e51b815260206004820152602a60248201527f4552433732313a2062616c616e636520717565727920666f7220746865207a65604482015269726f206164647265737360b01b60648201526084016106ec565b506001600160a01b031660009081526003602052604090205490565b600a546001600160a01b0316331461106c5760405162461bcd60e51b81526004016106ec906122ad565b610ac260006116ee565b600a546001600160a01b031633146110a05760405162461bcd60e51b81526004016106ec906122ad565b600f55565b606060018054610717906123c1565b6001600160a01b03821633141561110d5760405162461bcd60e51b815260206004820152601960248201527f4552433732313a20617070726f766520746f2063616c6c65720000000000000060448201526064016106ec565b3360008181526005602090815260408083206001600160a01b03871680855290835292819020805460ff191686151590811790915590519081529192917f17307eab39ab6107e8899845ad3d59bd9653f200f220920489ca2b5937696c31910160405180910390a35050565b6111833383611432565b61119f5760405162461bcd60e51b81526004016106ec906122e2565b610c7884848484611740565b600c8054610f3a906123c1565b6000818152600260205260409020546060906001600160a01b03166112375760405162461bcd60e51b815260206004820152602f60248201527f4552433732314d657461646174613a2055524920717565727920666f72206e6f60448201526e3732bc34b9ba32b73a103a37b5b2b760891b60648201526084016106ec565b6000611241611773565b90506000815111611261576040518060200160405280600081525061128f565b8061126b84611782565b600c60405160200161127f93929190612105565b6040516020818303038152906040525b9392505050565b600a546001600160a01b031633146112c05760405162461bcd60e51b81526004016106ec906122ad565b8051610eb290600c906020840190611d9c565b600a546001600160a01b031633146112fd5760405162461bcd60e51b81526004016106ec906122ad565b6001600160a01b0381166113625760405162461bcd60e51b815260206004820152602660248201527f4f776e61626c653a206e6577206f776e657220697320746865207a65726f206160448201526564647265737360d01b60648201526084016106ec565b61136b816116ee565b50565b3b151590565b60006001600160e01b031982166380ac58cd60e01b14806113a557506001600160e01b03198216635b5e139f60e01b145b806106bc57506301ffc9a760e01b6001600160e01b03198316146106bc565b600081815260046020526040902080546001600160a01b0319166001600160a01b03841690811790915581906113f982610eb6565b6001600160a01b03167f8c5be1e5ebec7d5bd14f71427d1e84f3dd0314c0f7b2291e5b200ac8c7c3b92560405160405180910390a45050565b6000818152600260205260408120546001600160a01b03166114ab5760405162461bcd60e51b815260206004820152602c60248201527f4552433732313a206f70657261746f7220717565727920666f72206e6f6e657860448201526b34b9ba32b73a103a37b5b2b760a11b60648201526084016106ec565b60006114b683610eb6565b9050806001600160a01b0316846001600160a01b031614806114f15750836001600160a01b03166114e68461079a565b6001600160a01b0316145b8061152157506001600160a01b0380821660009081526005602090815260408083209388168352929052205460ff165b949350505050565b826001600160a01b031661153c82610eb6565b6001600160a01b0316146115a45760405162461bcd60e51b815260206004820152602960248201527f4552433732313a207472616e73666572206f6620746f6b656e2074686174206960448201526839903737ba1037bbb760b91b60648201526084016106ec565b6001600160a01b0382166116065760405162461bcd60e51b8152602060048201526024808201527f4552433732313a207472616e7366657220746f20746865207a65726f206164646044820152637265737360e01b60648201526084016106ec565b61161183838361189c565b61161c6000826113c4565b6001600160a01b038316600090815260036020526040812080546001929061164590849061237e565b90915550506001600160a01b0382166000908152600360205260408120805460019290611673908490612333565b909155505060008181526002602052604080822080546001600160a01b0319166001600160a01b0386811691821790925591518493918716917fddf252ad1be2c89b69c2b068fc378daa952ba7f163c4a11628f55a4df523b3ef91a4505050565b610eb2828260405180602001604052806000815250611954565b600a80546001600160a01b038381166001600160a01b0319831681179093556040519116919082907f8be0079c531659141344cd1fd0a4f28419497f9722a3daafe3b4186f6b6457e090600090a35050565b61174b848484611529565b61175784848484611987565b610c785760405162461bcd60e51b81526004016106ec9061225b565b6060600b8054610717906123c1565b6060816117a65750506040805180820190915260018152600360fc1b602082015290565b8160005b81156117d057806117ba816123fc565b91506117c99050600a8361234b565b91506117aa565b60008167ffffffffffffffff8111156117f957634e487b7160e01b600052604160045260246000fd5b6040519080825280601f01601f191660200182016040528015611823576020820181803683370190505b5090505b84156115215761183860018361237e565b9150611845600a86612417565b611850906030612333565b60f81b81838151811061187357634e487b7160e01b600052603260045260246000fd5b60200101906001600160f81b031916908160001a905350611895600a8661234b565b9450611827565b6001600160a01b0383166118f7576118f281600880546000838152600960205260408120829055600182018355919091527ff3f7a9fe364faab93b216da50a3214154f22a0a2b415b23a84c8169e8b636ee30155565b61191a565b816001600160a01b0316836001600160a01b03161461191a5761191a8382611a94565b6001600160a01b0382166119315761094081611b31565b826001600160a01b0316826001600160a01b031614610940576109408282611c0a565b61195e8383611c4e565b61196b6000848484611987565b6109405760405162461bcd60e51b81526004016106ec9061225b565b60006001600160a01b0384163b15611a8957604051630a85bd0160e11b81526001600160a01b0385169063150b7a02906119cb9033908990889088906004016121c7565b602060405180830381600087803b1580156119e557600080fd5b505af1925050508015611a15575060408051601f3d908101601f19168201909252611a129181019061205f565b60015b611a6f573d808015611a43576040519150601f19603f3d011682016040523d82523d6000602084013e611a48565b606091505b508051611a675760405162461bcd60e51b81526004016106ec9061225b565b805181602001fd5b6001600160e01b031916630a85bd0160e11b149050611521565b506001949350505050565b60006001611aa184610fbb565b611aab919061237e565b600083815260076020526040902054909150808214611afe576001600160a01b03841660009081526006602090815260408083208584528252808320548484528184208190558352600790915290208190555b5060009182526007602090815260408084208490556001600160a01b039094168352600681528383209183525290812055565b600854600090611b439060019061237e565b60008381526009602052604081205460088054939450909284908110611b7957634e487b7160e01b600052603260045260246000fd5b906000526020600020015490508060088381548110611ba857634e487b7160e01b600052603260045260246000fd5b6000918252602080832090910192909255828152600990915260408082208490558582528120556008805480611bee57634e487b7160e01b600052603160045260246000fd5b6001900381819060005260206000200160009055905550505050565b6000611c1583610fbb565b6001600160a01b039093166000908152600660209081526040808320868452825280832085905593825260079052919091209190915550565b6001600160a01b038216611ca45760405162461bcd60e51b815260206004820181905260248201527f4552433732313a206d696e7420746f20746865207a65726f206164647265737360448201526064016106ec565b6000818152600260205260409020546001600160a01b031615611d095760405162461bcd60e51b815260206004820152601c60248201527f4552433732313a20746f6b656e20616c7265616479206d696e7465640000000060448201526064016106ec565b611d156000838361189c565b6001600160a01b0382166000908152600360205260408120805460019290611d3e908490612333565b909155505060008181526002602052604080822080546001600160a01b0319166001600160a01b03861690811790915590518392907fddf252ad1be2c89b69c2b068fc378daa952ba7f163c4a11628f55a4df523b3ef908290a45050565b828054611da8906123c1565b90600052602060002090601f016020900481019282611dca5760008555611e10565b82601f10611de357805160ff1916838001178555611e10565b82800160010185558215611e10579182015b82811115611e10578251825591602001919060010190611df5565b50611e1c929150611e20565b5090565b5b80821115611e1c5760008155600101611e21565b600067ffffffffffffffff80841115611e5057611e50612457565b604051601f8501601f19908116603f01168101908282118183101715611e7857611e78612457565b81604052809350858152868686011115611e9157600080fd5b858560208301376000602087830101525050509392505050565b80356001600160a01b0381168114611ec257600080fd5b919050565b80358015158114611ec257600080fd5b600060208284031215611ee8578081fd5b61128f82611eab565b60008060408385031215611f03578081fd5b611f0c83611eab565b9150611f1a60208401611eab565b90509250929050565b600080600060608486031215611f37578081fd5b611f4084611eab565b9250611f4e60208501611eab565b9150604084013590509250925092565b60008060008060808587031215611f73578081fd5b611f7c85611eab565b9350611f8a60208601611eab565b925060408501359150606085013567ffffffffffffffff811115611fac578182fd5b8501601f81018713611fbc578182fd5b611fcb87823560208401611e35565b91505092959194509250565b60008060408385031215611fe9578182fd5b611ff283611eab565b9150611f1a60208401611ec7565b60008060408385031215612012578182fd5b61201b83611eab565b946020939093013593505050565b60006020828403121561203a578081fd5b61128f82611ec7565b600060208284031215612054578081fd5b813561128f8161246d565b600060208284031215612070578081fd5b815161128f8161246d565b60006020828403121561208c578081fd5b813567ffffffffffffffff8111156120a2578182fd5b8201601f810184136120b2578182fd5b61152184823560208401611e35565b6000602082840312156120d2578081fd5b5035919050565b600081518084526120f1816020860160208601612395565b601f01601f19169290920160200192915050565b6000845160206121188285838a01612395565b85519184019161212b8184848a01612395565b85549201918390600181811c908083168061214757607f831692505b85831081141561216557634e487b7160e01b88526022600452602488fd5b808015612179576001811461218a576121b6565b60ff198516885283880195506121b6565b60008b815260209020895b858110156121ae5781548a820152908401908801612195565b505083880195505b50939b9a5050505050505050505050565b6001600160a01b03858116825284166020820152604081018390526080606082018190526000906121fa908301846120d9565b9695505050505050565b6020808252825182820181905260009190848201906040850190845b8181101561223c57835183529284019291840191600101612220565b50909695505050505050565b60208152600061128f60208301846120d9565b60208082526032908201527f4552433732313a207472616e7366657220746f206e6f6e20455243373231526560408201527131b2b4bb32b91034b6b83632b6b2b73a32b960711b606082015260800190565b6020808252818101527f4f776e61626c653a2063616c6c6572206973206e6f7420746865206f776e6572604082015260600190565b60208082526031908201527f4552433732313a207472616e736665722063616c6c6572206973206e6f74206f6040820152701ddb995c881b9bdc88185c1c1c9bdd9959607a1b606082015260800190565b600082198211156123465761234661242b565b500190565b60008261235a5761235a612441565b500490565b60008160001904831182151516156123795761237961242b565b500290565b6000828210156123905761239061242b565b500390565b60005b838110156123b0578181015183820152602001612398565b83811115610c785750506000910152565b600181811c908216806123d557607f821691505b602082108114156123f657634e487b7160e01b600052602260045260246000fd5b50919050565b60006000198214156124105761241061242b565b5060010190565b60008261242657612426612441565b500690565b634e487b7160e01b600052601160045260246000fd5b634e487b7160e01b600052601260045260246000fd5b634e487b7160e01b600052604160045260246000fd5b6001600160e01b03198116811461136b57600080fdfea2646970667358221220dd7bb114ee4d826a8f8020e386a57f04f371a85d42afedc5ec3c1896a4d0c00064736f6c634300080400334552433732313a207472616e7366657220746f206e6f6e204552433732315265",
  "immutableReferences": {},
  "source": "// SPDX-License-Identifier: GPL-3.0\npragma solidity ^0.8.0;\n\nimport \"@openzeppelin/contracts/token/ERC721/extensions/ERC721Enumerable.sol\";\nimport \"@openzeppelin/contracts/access/Ownable.sol\";\n\ncontract CryptoDuckWalk is ERC721Enumerable, Ownable {\n  using Strings for uint256;\n\n  string public baseURI;\n  string public baseExtension = \".json\";\n  uint256 public cost = 0.25 ether; // 1 ,2 ,3\n  uint256 public maxSupply = 1000;\n  uint256 public maxMintAmount = 5; // one user can mint only 20 nfts \n  bool public paused = false;\n  mapping(address => bool) public whitelisted;\n\n  constructor(\n    string memory _name,\n    string memory _symbol,\n    string memory _initBaseURI\n  ) ERC721(_name, _symbol) {\n    setBaseURI(_initBaseURI);\n    mint(msg.sender, 2); // msg.sender means you (the deployer )\n  }\n\n  // internal\n  function _baseURI() internal view virtual override returns (string memory) {\n    return baseURI;\n  }\n\n  // public\n  function mint(address _to, uint256 _mintAmount) public payable {\n    uint256 supply = totalSupply();\n    require(!paused,\"gasscase1\");\n    require(_mintAmount > 0,\"gasscase2\");\n    require(_mintAmount <= maxMintAmount,\"gasscase3\");\n    require(supply + _mintAmount <= maxSupply,\"gasscase4\");\n\n    if (msg.sender != owner()) {\n        if(whitelisted[msg.sender] != true) {\n          require(msg.value >= cost * _mintAmount,\"gasscase5\");\n        }\n    }\n\n    for (uint256 i = 1; i <= _mintAmount; i++) {\n      _safeMint(_to, supply + i);\n    }\n  }\n\n  function walletOfOwner(address _owner)\n    public\n    view\n    returns (uint256[] memory)\n  {\n    uint256 ownerTokenCount = balanceOf(_owner);\n    uint256[] memory tokenIds = new uint256[](ownerTokenCount);\n    for (uint256 i; i < ownerTokenCount; i++) {\n      tokenIds[i] = tokenOfOwnerByIndex(_owner, i);\n    }\n    return tokenIds;\n  }\n\n  function tokenURI(uint256 tokenId)\n    public\n    view\n    virtual\n    override\n    returns (string memory)\n  {\n    require(\n      _exists(tokenId),\n      \"ERC721Metadata: URI query for nonexistent token\"\n    );\n\n    string memory currentBaseURI = _baseURI();\n    return bytes(currentBaseURI).length > 0\n        ? string(abi.encodePacked(currentBaseURI, tokenId.toString(), baseExtension))\n        : \"\";\n  }\n\n  //only owner\n  function setCost(uint256 _newCost) public onlyOwner {\n    cost = _newCost;\n  }\n\n  function setmaxMintAmount(uint256 _newmaxMintAmount) public onlyOwner {\n    maxMintAmount = _newmaxMintAmount;\n  }\n\n  function setBaseURI(string memory _newBaseURI) public onlyOwner {\n    baseURI = _newBaseURI;\n  }\n\n  function setBaseExtension(string memory _newBaseExtension) public onlyOwner {\n    baseExtension = _newBaseExtension;\n  }\n\n  function pause(bool _state) public onlyOwner {\n    paused = _state;\n  }\n \n function whitelistUser(address _user) public onlyOwner {\n    whitelisted[_user] = true;\n  }\n \n  function removeWhitelistUser(address _user) public onlyOwner {\n    whitelisted[_user] = false;\n  }\n\n  function withdraw() public payable onlyOwner {\n  require(payable(msg.sender).send(address(this).balance),'');\n  }// the all money send to deployer account anyway\n  //  you can get all money on contracts in mainnet, when we deploy our \n  //  contract to mainnet you will able to see the contract on opensea \n}\n",
  "sourcePath": "E:\\fiverr\\orders\\1-nft-minter\\final\\NFT-MINTER-main\\NFT-MINTER-main\\contracts\\SmartContract.sol",
  "compiler": {
    "name": "solc",
    "version": "0.8.4+commit.c7e474f2.Emscripten.clang"
  },
  "schemaVersion": "3.4.3",
  "updatedAt": "2021-12-08T05:04:13.423Z",
  "networkType": "ethereum",
  "devdoc": {
    "kind": "dev",
    "methods": {
      "approve(address,uint256)": {
        "details": "See {IERC721-approve}."
      },
      "balanceOf(address)": {
        "details": "See {IERC721-balanceOf}."
      },
      "getApproved(uint256)": {
        "details": "See {IERC721-getApproved}."
      },
      "isApprovedForAll(address,address)": {
        "details": "See {IERC721-isApprovedForAll}."
      },
      "name()": {
        "details": "See {IERC721Metadata-name}."
      },
      "owner()": {
        "details": "Returns the address of the current owner."
      },
      "ownerOf(uint256)": {
        "details": "See {IERC721-ownerOf}."
      },
      "renounceOwnership()": {
        "details": "Leaves the contract without owner. It will not be possible to call `onlyOwner` functions anymore. Can only be called by the current owner. NOTE: Renouncing ownership will leave the contract without an owner, thereby removing any functionality that is only available to the owner."
      },
      "safeTransferFrom(address,address,uint256)": {
        "details": "See {IERC721-safeTransferFrom}."
      },
      "safeTransferFrom(address,address,uint256,bytes)": {
        "details": "See {IERC721-safeTransferFrom}."
      },
      "setApprovalForAll(address,bool)": {
        "details": "See {IERC721-setApprovalForAll}."
      },
      "supportsInterface(bytes4)": {
        "details": "See {IERC165-supportsInterface}."
      },
      "symbol()": {
        "details": "See {IERC721Metadata-symbol}."
      },
      "tokenByIndex(uint256)": {
        "details": "See {IERC721Enumerable-tokenByIndex}."
      },
      "tokenOfOwnerByIndex(address,uint256)": {
        "details": "See {IERC721Enumerable-tokenOfOwnerByIndex}."
      },
      "tokenURI(uint256)": {
        "details": "See {IERC721Metadata-tokenURI}."
      },
      "totalSupply()": {
        "details": "See {IERC721Enumerable-totalSupply}."
      },
      "transferFrom(address,address,uint256)": {
        "details": "See {IERC721-transferFrom}."
      },
      "transferOwnership(address)": {
        "details": "Transfers ownership of the contract to a new account (`newOwner`). Can only be called by the current owner."
      }
    },
    "version": 1
  },
  "userdoc": {
    "kind": "user",
    "methods": {},
    "version": 1
  }
}